{
  "_format": "hh-sol-artifact-1",
  "contractName": "Lottery",
  "sourceName": "contracts/Lottery.sol",
  "abi": [
    {
      "inputs": [
        {
          "internalType": "address",
          "name": "_linkToken",
          "type": "address"
        },
        {
          "internalType": "bytes32",
          "name": "_keyHash",
          "type": "bytes32"
        },
        {
          "internalType": "address",
          "name": "_vrfCoordinator",
          "type": "address"
        },
        {
          "internalType": "uint256",
          "name": "_chainlinkFee",
          "type": "uint256"
        },
        {
          "internalType": "uint256",
          "name": "_ticketPrice",
          "type": "uint256"
        },
        {
          "internalType": "uint256",
          "name": "_maxTicketCount",
          "type": "uint256"
        }
      ],
      "stateMutability": "nonpayable",
      "type": "constructor"
    },
    {
      "anonymous": false,
      "inputs": [
        {
          "indexed": true,
          "internalType": "address",
          "name": "ticketHolder",
          "type": "address"
        },
        {
          "indexed": false,
          "internalType": "uint256",
          "name": "prize",
          "type": "uint256"
        }
      ],
      "name": "LotteryPrizeClaimed",
      "type": "event"
    },
    {
      "anonymous": false,
      "inputs": [
        {
          "indexed": true,
          "internalType": "enum Lottery.LotteryState",
          "name": "state",
          "type": "uint8"
        }
      ],
      "name": "LotteryStateChanged",
      "type": "event"
    },
    {
      "anonymous": false,
      "inputs": [
        {
          "indexed": true,
          "internalType": "address",
          "name": "ticketHolder",
          "type": "address"
        },
        {
          "indexed": false,
          "internalType": "uint256",
          "name": "ticketNumber",
          "type": "uint256"
        }
      ],
      "name": "LotteryTicketPurchased",
      "type": "event"
    },
    {
      "anonymous": false,
      "inputs": [
        {
          "indexed": true,
          "internalType": "uint256",
          "name": "number",
          "type": "uint256"
        }
      ],
      "name": "LotteryWinningNumberDrawn",
      "type": "event"
    },
    {
      "anonymous": false,
      "inputs": [
        {
          "indexed": true,
          "internalType": "bytes32",
          "name": "requestId",
          "type": "bytes32"
        }
      ],
      "name": "LotteryWinningNumberRequested",
      "type": "event"
    },
    {
      "anonymous": false,
      "inputs": [
        {
          "indexed": true,
          "internalType": "address",
          "name": "previousOwner",
          "type": "address"
        },
        {
          "indexed": true,
          "internalType": "address",
          "name": "newOwner",
          "type": "address"
        }
      ],
      "name": "OwnershipTransferred",
      "type": "event"
    },
    {
      "inputs": [],
      "name": "chainlinkFee",
      "outputs": [
        {
          "internalType": "uint256",
          "name": "",
          "type": "uint256"
        }
      ],
      "stateMutability": "view",
      "type": "function"
    },
    {
      "inputs": [],
      "name": "claimPrize",
      "outputs": [],
      "stateMutability": "nonpayable",
      "type": "function"
    },
    {
      "inputs": [],
      "name": "getCurrentTicketNumber",
      "outputs": [
        {
          "internalType": "uint256",
          "name": "",
          "type": "uint256"
        }
      ],
      "stateMutability": "view",
      "type": "function"
    },
    {
      "inputs": [],
      "name": "getLotteryBalance",
      "outputs": [
        {
          "internalType": "uint256",
          "name": "",
          "type": "uint256"
        }
      ],
      "stateMutability": "view",
      "type": "function"
    },
    {
      "inputs": [],
      "name": "isPrizeClaimAttempted",
      "outputs": [
        {
          "internalType": "bool",
          "name": "",
          "type": "bool"
        }
      ],
      "stateMutability": "view",
      "type": "function"
    },
    {
      "inputs": [],
      "name": "keyHash",
      "outputs": [
        {
          "internalType": "bytes32",
          "name": "",
          "type": "bytes32"
        }
      ],
      "stateMutability": "view",
      "type": "function"
    },
    {
      "inputs": [],
      "name": "lotteryState",
      "outputs": [
        {
          "internalType": "enum Lottery.LotteryState",
          "name": "",
          "type": "uint8"
        }
      ],
      "stateMutability": "view",
      "type": "function"
    },
    {
      "inputs": [],
      "name": "maxTicketCount",
      "outputs": [
        {
          "internalType": "uint256",
          "name": "",
          "type": "uint256"
        }
      ],
      "stateMutability": "view",
      "type": "function"
    },
    {
      "inputs": [],
      "name": "owner",
      "outputs": [
        {
          "internalType": "address",
          "name": "",
          "type": "address"
        }
      ],
      "stateMutability": "view",
      "type": "function"
    },
    {
      "inputs": [],
      "name": "purchaseTicket",
      "outputs": [],
      "stateMutability": "payable",
      "type": "function"
    },
    {
      "inputs": [
        {
          "internalType": "bytes32",
          "name": "requestId",
          "type": "bytes32"
        },
        {
          "internalType": "uint256",
          "name": "randomness",
          "type": "uint256"
        }
      ],
      "name": "rawFulfillRandomness",
      "outputs": [],
      "stateMutability": "nonpayable",
      "type": "function"
    },
    {
      "inputs": [],
      "name": "renounceOwnership",
      "outputs": [],
      "stateMutability": "nonpayable",
      "type": "function"
    },
    {
      "inputs": [],
      "name": "requestId",
      "outputs": [
        {
          "internalType": "bytes32",
          "name": "",
          "type": "bytes32"
        }
      ],
      "stateMutability": "view",
      "type": "function"
    },
    {
      "inputs": [
        {
          "internalType": "address",
          "name": "",
          "type": "address"
        }
      ],
      "name": "ticketHoldersToTicket",
      "outputs": [
        {
          "internalType": "address",
          "name": "owner",
          "type": "address"
        },
        {
          "internalType": "uint256",
          "name": "number",
          "type": "uint256"
        },
        {
          "internalType": "bool",
          "name": "isPaid",
          "type": "bool"
        }
      ],
      "stateMutability": "view",
      "type": "function"
    },
    {
      "inputs": [],
      "name": "ticketPrice",
      "outputs": [
        {
          "internalType": "uint256",
          "name": "",
          "type": "uint256"
        }
      ],
      "stateMutability": "view",
      "type": "function"
    },
    {
      "inputs": [
        {
          "internalType": "address",
          "name": "newOwner",
          "type": "address"
        }
      ],
      "name": "transferOwnership",
      "outputs": [],
      "stateMutability": "nonpayable",
      "type": "function"
    },
    {
      "inputs": [],
      "name": "winningNumber",
      "outputs": [
        {
          "internalType": "uint256",
          "name": "",
          "type": "uint256"
        }
      ],
      "stateMutability": "view",
      "type": "function"
    }
  ],
  "bytecode": "0x60c06040526000600560006101000a81548160ff021916908360018111156200002d576200002c62000314565b5b02179055503480156200003f57600080fd5b50604051620021de380380620021de833981810160405281019062000065919062000230565b8386620000876200007b6200011f60201b60201c565b6200012760201b60201c565b8173ffffffffffffffffffffffffffffffffffffffff1660a08173ffffffffffffffffffffffffffffffffffffffff1660601b815250508073ffffffffffffffffffffffffffffffffffffffff1660808173ffffffffffffffffffffffffffffffffffffffff1660601b8152505050508460028190555082600481905550816006819055508060078190555050505050505062000396565b600033905090565b60008060009054906101000a900473ffffffffffffffffffffffffffffffffffffffff169050816000806101000a81548173ffffffffffffffffffffffffffffffffffffffff021916908373ffffffffffffffffffffffffffffffffffffffff1602179055508173ffffffffffffffffffffffffffffffffffffffff168173ffffffffffffffffffffffffffffffffffffffff167f8be0079c531659141344cd1fd0a4f28419497f9722a3daafe3b4186f6b6457e060405160405180910390a35050565b600081519050620001fc8162000348565b92915050565b600081519050620002138162000362565b92915050565b6000815190506200022a816200037c565b92915050565b60008060008060008060c0878903121562000250576200024f62000343565b5b60006200026089828a01620001eb565b96505060206200027389828a0162000202565b95505060406200028689828a01620001eb565b94505060606200029989828a0162000219565b9350506080620002ac89828a0162000219565b92505060a0620002bf89828a0162000219565b9150509295509295509295565b6000620002d982620002ea565b9050919050565b6000819050919050565b600073ffffffffffffffffffffffffffffffffffffffff82169050919050565b6000819050919050565b7f4e487b7100000000000000000000000000000000000000000000000000000000600052602160045260246000fd5b600080fd5b6200035381620002cc565b81146200035f57600080fd5b50565b6200036d81620002e0565b81146200037957600080fd5b50565b62000387816200030a565b81146200039357600080fd5b50565b60805160601c60a05160601c611e15620003c960003960008181610a380152610c4101526000610c050152611e156000f3fe6080604052600436106100fd5760003560e01c80636939864b116100955780637ac98be1116100645780637ac98be1146102d15780638da5cb5b146102fc57806394985ddd1461032757806398d20f9e14610350578063f2fde38b1461037b576100fd565b80636939864b1461024d57806370740ac9146102785780637104539a1461028f578063715018a6146102ba576100fd565b80634664611e116100d15780634664611e1461018d57806359c49cb9146101b857806360654e47146101f757806361728f3914610222576100fd565b80626d6cae14610102578063090aa2751461012d5780631209b1f61461015857806321846c7614610183575b600080fd5b34801561010e57600080fd5b506101176103a4565b6040516101249190611582565b60405180910390f35b34801561013957600080fd5b506101426103aa565b60405161014f91906117c6565b60405180910390f35b34801561016457600080fd5b5061016d6103b0565b60405161017a91906117c6565b60405180910390f35b61018b6103b6565b005b34801561019957600080fd5b506101a2610732565b6040516101af91906117c6565b60405180910390f35b3480156101c457600080fd5b506101df60048036038101906101da9190611160565b610738565b6040516101ee939291906114f2565b60405180910390f35b34801561020357600080fd5b5061020c61078f565b60405161021991906117c6565b60405180910390f35b34801561022e57600080fd5b50610237610797565b6040516102449190611582565b60405180910390f35b34801561025957600080fd5b5061026261079d565b60405161026f919061160b565b60405180910390f35b34801561028457600080fd5b5061028d6107b0565b005b34801561029b57600080fd5b506102a461096e565b6040516102b191906117c6565b60405180910390f35b3480156102c657600080fd5b506102cf61097f565b005b3480156102dd57600080fd5b506102e6610a07565b6040516102f391906117c6565b60405180910390f35b34801561030857600080fd5b50610311610a0d565b60405161031e91906114d7565b60405180910390f35b34801561033357600080fd5b5061034e600480360381019061034991906111ba565b610a36565b005b34801561035c57600080fd5b50610365610ad2565b6040516103729190611567565b60405180910390f35b34801561038757600080fd5b506103a2600480360381019061039d9190611160565b610ae5565b005b60035481565b60075481565b60065481565b600060018111156103ca576103c96119bc565b5b600560009054906101000a900460ff1660018111156103ec576103eb6119bc565b5b1461042c576040517f08c379a000000000000000000000000000000000000000000000000000000000815260040161042390611726565b60405180910390fd5b6006543414610470576040517f08c379a000000000000000000000000000000000000000000000000000000000815260040161046790611706565b60405180910390fd5b60001515600b60003373ffffffffffffffffffffffffffffffffffffffff1673ffffffffffffffffffffffffffffffffffffffff16815260200190815260200160002060020160009054906101000a900460ff16151514610506576040517f08c379a00000000000000000000000000000000000000000000000000000000081526004016104fd906116e6565b60405180910390fd5b610510600a610bdd565b600061051c600a610bf3565b9050600060405180606001604052803373ffffffffffffffffffffffffffffffffffffffff16815260200183815260200160011515815250905080600b60003373ffffffffffffffffffffffffffffffffffffffff1673ffffffffffffffffffffffffffffffffffffffff16815260200190815260200160002060008201518160000160006101000a81548173ffffffffffffffffffffffffffffffffffffffff021916908373ffffffffffffffffffffffffffffffffffffffff1602179055506020820151816001015560408201518160020160006101000a81548160ff02191690831515021790555090505080600c600084815260200190815260200160002060008201518160000160006101000a81548173ffffffffffffffffffffffffffffffffffffffff021916908373ffffffffffffffffffffffffffffffffffffffff1602179055506020820151816001015560408201518160020160006101000a81548160ff0219169083151502179055509050503373ffffffffffffffffffffffffffffffffffffffff167f5436f9c7563d4b5be022d399b41f15519419cafca0f81c49d0cfbe78b925cbff836040516106d891906117c6565b60405180910390a260075482141561072e576106f8600254600454610c01565b6003819055506003547fc72c35213609b187a3132b5375b1bf53ad1e8258d356b4ac4b19e9ca767f6f4560405160405180910390a25b5050565b60095481565b600b6020528060005260406000206000915090508060000160009054906101000a900473ffffffffffffffffffffffffffffffffffffffff16908060010154908060020160009054906101000a900460ff16905083565b600047905090565b60025481565b600560009054906101000a900460ff1681565b3373ffffffffffffffffffffffffffffffffffffffff16600c6000600954815260200190815260200160002060000160009054906101000a900473ffffffffffffffffffffffffffffffffffffffff1673ffffffffffffffffffffffffffffffffffffffff1614610856576040517f08c379a000000000000000000000000000000000000000000000000000000000815260040161084d90611646565b60405180910390fd5b600860009054906101000a900460ff166108a5576040517f08c379a000000000000000000000000000000000000000000000000000000000815260040161089c90611766565b60405180910390fd5b6001808111156108b8576108b76119bc565b5b600560009054906101000a900460ff1660018111156108da576108d96119bc565b5b1461091a576040517f08c379a0000000000000000000000000000000000000000000000000000000008152600401610911906116a6565b60405180910390fd5b600061092461078f565b11610964576040517f08c379a000000000000000000000000000000000000000000000000000000000815260040161095b90611626565b60405180910390fd5b61096c610d62565b565b600061097a600a610bf3565b905090565b610987610ebc565b73ffffffffffffffffffffffffffffffffffffffff166109a5610a0d565b73ffffffffffffffffffffffffffffffffffffffff16146109fb576040517f08c379a00000000000000000000000000000000000000000000000000000000081526004016109f2906116c6565b60405180910390fd5b610a056000610ec4565b565b60045481565b60008060009054906101000a900473ffffffffffffffffffffffffffffffffffffffff16905090565b7f000000000000000000000000000000000000000000000000000000000000000073ffffffffffffffffffffffffffffffffffffffff163373ffffffffffffffffffffffffffffffffffffffff1614610ac4576040517f08c379a0000000000000000000000000000000000000000000000000000000008152600401610abb90611746565b60405180910390fd5b610ace8282610f88565b5050565b600860009054906101000a900460ff1681565b610aed610ebc565b73ffffffffffffffffffffffffffffffffffffffff16610b0b610a0d565b73ffffffffffffffffffffffffffffffffffffffff1614610b61576040517f08c379a0000000000000000000000000000000000000000000000000000000008152600401610b58906116c6565b60405180910390fd5b600073ffffffffffffffffffffffffffffffffffffffff168173ffffffffffffffffffffffffffffffffffffffff161415610bd1576040517f08c379a0000000000000000000000000000000000000000000000000000000008152600401610bc890611666565b60405180910390fd5b610bda81610ec4565b50565b6001816000016000828254019250508190555050565b600081600001549050919050565b60007f000000000000000000000000000000000000000000000000000000000000000073ffffffffffffffffffffffffffffffffffffffff16634000aea07f000000000000000000000000000000000000000000000000000000000000000084866000604051602001610c7592919061159d565b6040516020818303038152906040526040518463ffffffff1660e01b8152600401610ca293929190611529565b602060405180830381600087803b158015610cbc57600080fd5b505af1158015610cd0573d6000803e3d6000fd5b505050506040513d601f19601f82011682018060405250810190610cf4919061118d565b506000610d17846000306001600089815260200190815260200160002054611031565b9050600180600086815260200190815260200160002054610d389190611819565b6001600086815260200190815260200160002081905550610d59848261106d565b91505092915050565b600060095411610da7576040517f08c379a0000000000000000000000000000000000000000000000000000000008152600401610d9e90611686565b60405180910390fd5b6000600c6000600954815260200190815260200160002060000160009054906101000a900473ffffffffffffffffffffffffffffffffffffffff1690506000610dee61078f565b90506001600860006101000a81548160ff02191690831515021790555060008273ffffffffffffffffffffffffffffffffffffffff1682604051610e31906114c2565b60006040518083038185875af1925050503d8060008114610e6e576040519150601f19603f3d011682016040523d82523d6000602084013e610e73565b606091505b5050905080610eb7576040517f08c379a0000000000000000000000000000000000000000000000000000000008152600401610eae90611786565b60405180910390fd5b505050565b600033905090565b60008060009054906101000a900473ffffffffffffffffffffffffffffffffffffffff169050816000806101000a81548173ffffffffffffffffffffffffffffffffffffffff021916908373ffffffffffffffffffffffffffffffffffffffff1602179055508173ffffffffffffffffffffffffffffffffffffffff168173ffffffffffffffffffffffffffffffffffffffff167f8be0079c531659141344cd1fd0a4f28419497f9722a3daafe3b4186f6b6457e060405160405180910390a35050565b6003548214610fcc576040517f08c379a0000000000000000000000000000000000000000000000000000000008152600401610fc3906117a6565b60405180910390fd5b600160075482610fdc919061192d565b610fe69190611819565b6009819055506009547fe2cb28c7d64ae4cb99d4b0c50a87bc277d6e4bef501e0db0fbe4640761bb79a360405160405180910390a2611023610d62565b61102d60016110a0565b5050565b60008484848460405160200161104a94939291906115c6565b6040516020818303038152906040528051906020012060001c9050949350505050565b60008282604051602001611082929190611496565b60405160208183030381529060405280519060200120905092915050565b80600560006101000a81548160ff021916908360018111156110c5576110c46119bc565b5b02179055508060018111156110dd576110dc6119bc565b5b7f1e046fdd2110d82ed3fa7652b41ced17c49cbb9ee4536e65f51ad2a6ed5359a760405160405180910390a250565b60008135905061111b81611d83565b92915050565b60008151905061113081611d9a565b92915050565b60008135905061114581611db1565b92915050565b60008135905061115a81611dc8565b92915050565b600060208284031215611176576111756119eb565b5b60006111848482850161110c565b91505092915050565b6000602082840312156111a3576111a26119eb565b5b60006111b184828501611121565b91505092915050565b600080604083850312156111d1576111d06119eb565b5b60006111df85828601611136565b92505060206111f08582860161114b565b9150509250929050565b6112038161186f565b82525050565b61121281611881565b82525050565b6112218161188d565b82525050565b6112386112338261188d565b611919565b82525050565b6000611249826117e1565b61125381856117ec565b93506112638185602086016118e6565b61126c816119f0565b840191505092915050565b611280816118d4565b82525050565b6000611293602483611808565b915061129e82611a01565b604082019050919050565b60006112b6602383611808565b91506112c182611a50565b604082019050919050565b60006112d9602683611808565b91506112e482611a9f565b604082019050919050565b60006112fc602983611808565b915061130782611aee565b604082019050919050565b600061131f603983611808565b915061132a82611b3d565b604082019050919050565b6000611342602083611808565b915061134d82611b8c565b602082019050919050565b6000611365602b83611808565b915061137082611bb5565b604082019050919050565b6000611388602d83611808565b915061139382611c04565b604082019050919050565b60006113ab603583611808565b91506113b682611c53565b604082019050919050565b60006113ce601f83611808565b91506113d982611ca2565b602082019050919050565b60006113f1602083611808565b91506113fc82611ccb565b602082019050919050565b6000611414602083611808565b915061141f82611cf4565b602082019050919050565b60006114376000836117fd565b915061144282611d1d565b600082019050919050565b600061145a602283611808565b915061146582611d20565b604082019050919050565b611479816118ca565b82525050565b61149061148b826118ca565b611923565b82525050565b60006114a28285611227565b6020820191506114b2828461147f565b6020820191508190509392505050565b60006114cd8261142a565b9150819050919050565b60006020820190506114ec60008301846111fa565b92915050565b600060608201905061150760008301866111fa565b6115146020830185611470565b6115216040830184611209565b949350505050565b600060608201905061153e60008301866111fa565b61154b6020830185611470565b818103604083015261155d818461123e565b9050949350505050565b600060208201905061157c6000830184611209565b92915050565b60006020820190506115976000830184611218565b92915050565b60006040820190506115b26000830185611218565b6115bf6020830184611470565b9392505050565b60006080820190506115db6000830187611218565b6115e86020830186611470565b6115f560408301856111fa565b6116026060830184611470565b95945050505050565b60006020820190506116206000830184611277565b92915050565b6000602082019050818103600083015261163f81611286565b9050919050565b6000602082019050818103600083015261165f816112a9565b9050919050565b6000602082019050818103600083015261167f816112cc565b9050919050565b6000602082019050818103600083015261169f816112ef565b9050919050565b600060208201905081810360008301526116bf81611312565b9050919050565b600060208201905081810360008301526116df81611335565b9050919050565b600060208201905081810360008301526116ff81611358565b9050919050565b6000602082019050818103600083015261171f8161137b565b9050919050565b6000602082019050818103600083015261173f8161139e565b9050919050565b6000602082019050818103600083015261175f816113c1565b9050919050565b6000602082019050818103600083015261177f816113e4565b9050919050565b6000602082019050818103600083015261179f81611407565b9050919050565b600060208201905081810360008301526117bf8161144d565b9050919050565b60006020820190506117db6000830184611470565b92915050565b600081519050919050565b600082825260208201905092915050565b600081905092915050565b600082825260208201905092915050565b6000611824826118ca565b915061182f836118ca565b9250827fffffffffffffffffffffffffffffffffffffffffffffffffffffffffffffffff038211156118645761186361195e565b5b828201905092915050565b600061187a826118aa565b9050919050565b60008115159050919050565b6000819050919050565b60008190506118a582611d6f565b919050565b600073ffffffffffffffffffffffffffffffffffffffff82169050919050565b6000819050919050565b60006118df82611897565b9050919050565b60005b838110156119045780820151818401526020810190506118e9565b83811115611913576000848401525b50505050565b6000819050919050565b6000819050919050565b6000611938826118ca565b9150611943836118ca565b9250826119535761195261198d565b5b828206905092915050565b7f4e487b7100000000000000000000000000000000000000000000000000000000600052601160045260246000fd5b7f4e487b7100000000000000000000000000000000000000000000000000000000600052601260045260246000fd5b7f4e487b7100000000000000000000000000000000000000000000000000000000600052602160045260246000fd5b600080fd5b6000601f19601f8301169050919050565b7f5468657265206973206e6f207072697a6520706f6f6c20746f20626520636c6160008201527f696d656400000000000000000000000000000000000000000000000000000000602082015250565b7f4f6e6c79207468652077696e6e65722063616e20636c61696d2074686520707260008201527f697a650000000000000000000000000000000000000000000000000000000000602082015250565b7f4f776e61626c653a206e6577206f776e657220697320746865207a65726f206160008201527f6464726573730000000000000000000000000000000000000000000000000000602082015250565b7f5468652077696e6e696e67206e756d62657220686173206e6f74206265656e2060008201527f647261776e207965740000000000000000000000000000000000000000000000602082015250565b7f5072697a652063616e20626520636c61696d6564206f6e6c792061667465722060008201527f746865206c6f74746572792068617320636f6e636c7564656400000000000000602082015250565b7f4f776e61626c653a2063616c6c6572206973206e6f7420746865206f776e6572600082015250565b7f546869732077616c6c65742068617320616c726561647920656e74657265642060008201527f746865206c6f7474657279000000000000000000000000000000000000000000602082015250565b7f506c65617365207061792074686520636f727265637420616d6f756e7420666f60008201527f7220746865206c6f747465727900000000000000000000000000000000000000602082015250565b7f5469636b6574732063616e206f6e6c792062652070757263686173656420647560008201527f72696e67207468652073616c657320706572696f640000000000000000000000602082015250565b7f4f6e6c7920565246436f6f7264696e61746f722063616e2066756c66696c6c00600082015250565b7f5072697a65206973206e6f7420726561647920746f20626520636c61696d6564600082015250565b7f4661696c656420746f2073656e642062616c616e636520746f2077696e6e6572600082015250565b50565b7f496e76616c6964207265717565737420666f72207468652072616e646f6d6e6560008201527f7373000000000000000000000000000000000000000000000000000000000000602082015250565b60028110611d8057611d7f6119bc565b5b50565b611d8c8161186f565b8114611d9757600080fd5b50565b611da381611881565b8114611dae57600080fd5b50565b611dba8161188d565b8114611dc557600080fd5b50565b611dd1816118ca565b8114611ddc57600080fd5b5056fea2646970667358221220633769db60ccc82a0922e59ab5025abd88f1b00f429d7b14c57b1b830b15194b64736f6c63430008070033",
  "linkReferences": {},
  "deployedLinkReferences": {}
}