{
  "_format": "hh-sol-artifact-1",
  "contractName": "Lottery",
  "sourceName": "contracts/Lottery.sol",
  "abi": [
    {
      "inputs": [
        {
          "internalType": "address",
          "name": "_linkToken",
          "type": "address"
        },
        {
          "internalType": "bytes32",
          "name": "_keyHash",
          "type": "bytes32"
        },
        {
          "internalType": "address",
          "name": "_vrfCoordinator",
          "type": "address"
        },
        {
          "internalType": "uint256",
          "name": "_chainlinkFee",
          "type": "uint256"
        },
        {
          "internalType": "uint256",
          "name": "_ticketPrice",
          "type": "uint256"
        },
        {
          "internalType": "uint256",
          "name": "_maxTicketCount",
          "type": "uint256"
        }
      ],
      "stateMutability": "nonpayable",
      "type": "constructor"
    },
    {
      "anonymous": false,
      "inputs": [
        {
          "indexed": true,
          "internalType": "address",
          "name": "ticketHolder",
          "type": "address"
        },
        {
          "indexed": false,
          "internalType": "uint256",
          "name": "prize",
          "type": "uint256"
        }
      ],
      "name": "LotteryPrizeClaimed",
      "type": "event"
    },
    {
      "anonymous": false,
      "inputs": [
        {
          "indexed": true,
          "internalType": "enum Lottery.LotteryState",
          "name": "state",
          "type": "uint8"
        }
      ],
      "name": "LotteryStateChanged",
      "type": "event"
    },
    {
      "anonymous": false,
      "inputs": [
        {
          "indexed": true,
          "internalType": "address",
          "name": "ticketHolder",
          "type": "address"
        },
        {
          "indexed": false,
          "internalType": "uint256",
          "name": "ticketNumber",
          "type": "uint256"
        }
      ],
      "name": "LotteryTicketPurchased",
      "type": "event"
    },
    {
      "anonymous": false,
      "inputs": [
        {
          "indexed": true,
          "internalType": "uint256",
          "name": "number",
          "type": "uint256"
        }
      ],
      "name": "LotteryWinningNumberDrawn",
      "type": "event"
    },
    {
      "anonymous": false,
      "inputs": [
        {
          "indexed": true,
          "internalType": "bytes32",
          "name": "requestId",
          "type": "bytes32"
        }
      ],
      "name": "LotteryWinningNumberRequested",
      "type": "event"
    },
    {
      "anonymous": false,
      "inputs": [
        {
          "indexed": true,
          "internalType": "address",
          "name": "previousOwner",
          "type": "address"
        },
        {
          "indexed": true,
          "internalType": "address",
          "name": "newOwner",
          "type": "address"
        }
      ],
      "name": "OwnershipTransferred",
      "type": "event"
    },
    {
      "inputs": [],
      "name": "chainlinkFee",
      "outputs": [
        {
          "internalType": "uint256",
          "name": "",
          "type": "uint256"
        }
      ],
      "stateMutability": "view",
      "type": "function"
    },
    {
      "inputs": [],
      "name": "claimPrize",
      "outputs": [],
      "stateMutability": "nonpayable",
      "type": "function"
    },
    {
      "inputs": [],
      "name": "getCurrentTicketNumber",
      "outputs": [
        {
          "internalType": "uint256",
          "name": "",
          "type": "uint256"
        }
      ],
      "stateMutability": "view",
      "type": "function"
    },
    {
      "inputs": [],
      "name": "getLotteryBalance",
      "outputs": [
        {
          "internalType": "uint256",
          "name": "",
          "type": "uint256"
        }
      ],
      "stateMutability": "view",
      "type": "function"
    },
    {
      "inputs": [],
      "name": "isPrizeClaimAttempted",
      "outputs": [
        {
          "internalType": "bool",
          "name": "",
          "type": "bool"
        }
      ],
      "stateMutability": "view",
      "type": "function"
    },
    {
      "inputs": [],
      "name": "keyHash",
      "outputs": [
        {
          "internalType": "bytes32",
          "name": "",
          "type": "bytes32"
        }
      ],
      "stateMutability": "view",
      "type": "function"
    },
    {
      "inputs": [],
      "name": "lotteryState",
      "outputs": [
        {
          "internalType": "enum Lottery.LotteryState",
          "name": "",
          "type": "uint8"
        }
      ],
      "stateMutability": "view",
      "type": "function"
    },
    {
      "inputs": [],
      "name": "maxTicketCount",
      "outputs": [
        {
          "internalType": "uint256",
          "name": "",
          "type": "uint256"
        }
      ],
      "stateMutability": "view",
      "type": "function"
    },
    {
      "inputs": [],
      "name": "owner",
      "outputs": [
        {
          "internalType": "address",
          "name": "",
          "type": "address"
        }
      ],
      "stateMutability": "view",
      "type": "function"
    },
    {
      "inputs": [],
      "name": "purchaseTicket",
      "outputs": [],
      "stateMutability": "payable",
      "type": "function"
    },
    {
      "inputs": [
        {
          "internalType": "bytes32",
          "name": "requestId",
          "type": "bytes32"
        },
        {
          "internalType": "uint256",
          "name": "randomness",
          "type": "uint256"
        }
      ],
      "name": "rawFulfillRandomness",
      "outputs": [],
      "stateMutability": "nonpayable",
      "type": "function"
    },
    {
      "inputs": [],
      "name": "renounceOwnership",
      "outputs": [],
      "stateMutability": "nonpayable",
      "type": "function"
    },
    {
      "inputs": [],
      "name": "requestId",
      "outputs": [
        {
          "internalType": "bytes32",
          "name": "",
          "type": "bytes32"
        }
      ],
      "stateMutability": "view",
      "type": "function"
    },
    {
      "inputs": [
        {
          "internalType": "address",
          "name": "",
          "type": "address"
        }
      ],
      "name": "ticketHoldersToTicket",
      "outputs": [
        {
          "internalType": "address",
          "name": "owner",
          "type": "address"
        },
        {
          "internalType": "uint256",
          "name": "number",
          "type": "uint256"
        },
        {
          "internalType": "bool",
          "name": "isPaid",
          "type": "bool"
        }
      ],
      "stateMutability": "view",
      "type": "function"
    },
    {
      "inputs": [],
      "name": "ticketPrice",
      "outputs": [
        {
          "internalType": "uint256",
          "name": "",
          "type": "uint256"
        }
      ],
      "stateMutability": "view",
      "type": "function"
    },
    {
      "inputs": [
        {
          "internalType": "address",
          "name": "newOwner",
          "type": "address"
        }
      ],
      "name": "transferOwnership",
      "outputs": [],
      "stateMutability": "nonpayable",
      "type": "function"
    },
    {
      "inputs": [],
      "name": "winningNumber",
      "outputs": [
        {
          "internalType": "uint256",
          "name": "",
          "type": "uint256"
        }
      ],
      "stateMutability": "view",
      "type": "function"
    },
    {
      "inputs": [
        {
          "internalType": "contract IERC20",
          "name": "_token",
          "type": "address"
        },
        {
          "internalType": "address",
          "name": "_recipient",
          "type": "address"
        }
      ],
      "name": "withdrawERC20",
      "outputs": [],
      "stateMutability": "nonpayable",
      "type": "function"
    }
  ],
  "bytecode": "0x60c06040526000600560006101000a81548160ff021916908360018111156200002d576200002c62000314565b5b02179055503480156200003f57600080fd5b506040516200295f3803806200295f833981810160405281019062000065919062000230565b8386620000876200007b6200011f60201b60201c565b6200012760201b60201c565b8173ffffffffffffffffffffffffffffffffffffffff1660a08173ffffffffffffffffffffffffffffffffffffffff1660601b815250508073ffffffffffffffffffffffffffffffffffffffff1660808173ffffffffffffffffffffffffffffffffffffffff1660601b8152505050508460028190555082600481905550816006819055508060078190555050505050505062000396565b600033905090565b60008060009054906101000a900473ffffffffffffffffffffffffffffffffffffffff169050816000806101000a81548173ffffffffffffffffffffffffffffffffffffffff021916908373ffffffffffffffffffffffffffffffffffffffff1602179055508173ffffffffffffffffffffffffffffffffffffffff168173ffffffffffffffffffffffffffffffffffffffff167f8be0079c531659141344cd1fd0a4f28419497f9722a3daafe3b4186f6b6457e060405160405180910390a35050565b600081519050620001fc8162000348565b92915050565b600081519050620002138162000362565b92915050565b6000815190506200022a816200037c565b92915050565b60008060008060008060c0878903121562000250576200024f62000343565b5b60006200026089828a01620001eb565b96505060206200027389828a0162000202565b95505060406200028689828a01620001eb565b94505060606200029989828a0162000219565b9350506080620002ac89828a0162000219565b92505060a0620002bf89828a0162000219565b9150509295509295509295565b6000620002d982620002ea565b9050919050565b6000819050919050565b600073ffffffffffffffffffffffffffffffffffffffff82169050919050565b6000819050919050565b7f4e487b7100000000000000000000000000000000000000000000000000000000600052602160045260246000fd5b600080fd5b6200035381620002cc565b81146200035f57600080fd5b50565b6200036d81620002e0565b81146200037957600080fd5b50565b62000387816200030a565b81146200039357600080fd5b50565b60805160601c60a05160601c612596620003c960003960008181610b9f0152610da801526000610d6c01526125966000f3fe6080604052600436106101085760003560e01c806370740ac9116100955780638da5cb5b116100645780638da5cb5b146103075780639456fbcc1461033257806394985ddd1461035b57806398d20f9e14610384578063f2fde38b146103af57610108565b806370740ac9146102835780637104539a1461029a578063715018a6146102c55780637ac98be1146102dc57610108565b80634664611e116100dc5780634664611e1461019857806359c49cb9146101c357806360654e471461020257806361728f391461022d5780636939864b1461025857610108565b80626d6cae1461010d578063090aa275146101385780631209b1f61461016357806321846c761461018e575b600080fd5b34801561011957600080fd5b506101226103d8565b60405161012f9190611b86565b60405180910390f35b34801561014457600080fd5b5061014d6103de565b60405161015a9190611e4c565b60405180910390f35b34801561016f57600080fd5b506101786103e4565b6040516101859190611e4c565b60405180910390f35b6101966103ea565b005b3480156101a457600080fd5b506101ad610766565b6040516101ba9190611e4c565b60405180910390f35b3480156101cf57600080fd5b506101ea60048036038101906101e591906115e4565b61076c565b6040516101f993929190611af6565b60405180910390f35b34801561020e57600080fd5b506102176107c3565b6040516102249190611e4c565b60405180910390f35b34801561023957600080fd5b506102426107cb565b60405161024f9190611b86565b60405180910390f35b34801561026457600080fd5b5061026d6107d1565b60405161027a9190611c0f565b60405180910390f35b34801561028f57600080fd5b506102986107e4565b005b3480156102a657600080fd5b506102af6109a2565b6040516102bc9190611e4c565b60405180910390f35b3480156102d157600080fd5b506102da6109b3565b005b3480156102e857600080fd5b506102f1610a3b565b6040516102fe9190611e4c565b60405180910390f35b34801561031357600080fd5b5061031c610a41565b6040516103299190611ab2565b60405180910390f35b34801561033e57600080fd5b506103596004803603810190610354919061167e565b610a6a565b005b34801561036757600080fd5b50610382600480360381019061037d919061163e565b610b9d565b005b34801561039057600080fd5b50610399610c39565b6040516103a69190611b6b565b60405180910390f35b3480156103bb57600080fd5b506103d660048036038101906103d191906115e4565b610c4c565b005b60035481565b60075481565b60065481565b600060018111156103fe576103fd61205f565b5b600560009054906101000a900460ff1660018111156104205761041f61205f565b5b14610460576040517f08c379a000000000000000000000000000000000000000000000000000000000815260040161045790611d6c565b60405180910390fd5b60065434146104a4576040517f08c379a000000000000000000000000000000000000000000000000000000000815260040161049b90611d4c565b60405180910390fd5b60001515600b60003373ffffffffffffffffffffffffffffffffffffffff1673ffffffffffffffffffffffffffffffffffffffff16815260200190815260200160002060020160009054906101000a900460ff1615151461053a576040517f08c379a000000000000000000000000000000000000000000000000000000000815260040161053190611d2c565b60405180910390fd5b610544600a610d44565b6000610550600a610d5a565b9050600060405180606001604052803373ffffffffffffffffffffffffffffffffffffffff16815260200183815260200160011515815250905080600b60003373ffffffffffffffffffffffffffffffffffffffff1673ffffffffffffffffffffffffffffffffffffffff16815260200190815260200160002060008201518160000160006101000a81548173ffffffffffffffffffffffffffffffffffffffff021916908373ffffffffffffffffffffffffffffffffffffffff1602179055506020820151816001015560408201518160020160006101000a81548160ff02191690831515021790555090505080600c600084815260200190815260200160002060008201518160000160006101000a81548173ffffffffffffffffffffffffffffffffffffffff021916908373ffffffffffffffffffffffffffffffffffffffff1602179055506020820151816001015560408201518160020160006101000a81548160ff0219169083151502179055509050503373ffffffffffffffffffffffffffffffffffffffff167f5436f9c7563d4b5be022d399b41f15519419cafca0f81c49d0cfbe78b925cbff8360405161070c9190611e4c565b60405180910390a26007548214156107625761072c600254600454610d68565b6003819055506003547fc72c35213609b187a3132b5375b1bf53ad1e8258d356b4ac4b19e9ca767f6f4560405160405180910390a25b5050565b60095481565b600b6020528060005260406000206000915090508060000160009054906101000a900473ffffffffffffffffffffffffffffffffffffffff16908060010154908060020160009054906101000a900460ff16905083565b600047905090565b60025481565b600560009054906101000a900460ff1681565b3373ffffffffffffffffffffffffffffffffffffffff16600c6000600954815260200190815260200160002060000160009054906101000a900473ffffffffffffffffffffffffffffffffffffffff1673ffffffffffffffffffffffffffffffffffffffff161461088a576040517f08c379a000000000000000000000000000000000000000000000000000000000815260040161088190611c6c565b60405180910390fd5b600860009054906101000a900460ff166108d9576040517f08c379a00000000000000000000000000000000000000000000000000000000081526004016108d090611dac565b60405180910390fd5b6001808111156108ec576108eb61205f565b5b600560009054906101000a900460ff16600181111561090e5761090d61205f565b5b1461094e576040517f08c379a000000000000000000000000000000000000000000000000000000000815260040161094590611cec565b60405180910390fd5b60006109586107c3565b11610998576040517f08c379a000000000000000000000000000000000000000000000000000000000815260040161098f90611c4c565b60405180910390fd5b6109a0610ec9565b565b60006109ae600a610d5a565b905090565b6109bb611023565b73ffffffffffffffffffffffffffffffffffffffff166109d9610a41565b73ffffffffffffffffffffffffffffffffffffffff1614610a2f576040517f08c379a0000000000000000000000000000000000000000000000000000000008152600401610a2690611d0c565b60405180910390fd5b610a39600061102b565b565b60045481565b60008060009054906101000a900473ffffffffffffffffffffffffffffffffffffffff16905090565b610a72611023565b73ffffffffffffffffffffffffffffffffffffffff16610a90610a41565b73ffffffffffffffffffffffffffffffffffffffff1614610ae6576040517f08c379a0000000000000000000000000000000000000000000000000000000008152600401610add90611d0c565b60405180910390fd5b610b99818373ffffffffffffffffffffffffffffffffffffffff166370a08231306040518263ffffffff1660e01b8152600401610b239190611ab2565b60206040518083038186803b158015610b3b57600080fd5b505afa158015610b4f573d6000803e3d6000fd5b505050506040513d601f19601f82011682018060405250810190610b7391906116be565b8473ffffffffffffffffffffffffffffffffffffffff166110ef9092919063ffffffff16565b5050565b7f000000000000000000000000000000000000000000000000000000000000000073ffffffffffffffffffffffffffffffffffffffff163373ffffffffffffffffffffffffffffffffffffffff1614610c2b576040517f08c379a0000000000000000000000000000000000000000000000000000000008152600401610c2290611d8c565b60405180910390fd5b610c358282611175565b5050565b600860009054906101000a900460ff1681565b610c54611023565b73ffffffffffffffffffffffffffffffffffffffff16610c72610a41565b73ffffffffffffffffffffffffffffffffffffffff1614610cc8576040517f08c379a0000000000000000000000000000000000000000000000000000000008152600401610cbf90611d0c565b60405180910390fd5b600073ffffffffffffffffffffffffffffffffffffffff168173ffffffffffffffffffffffffffffffffffffffff161415610d38576040517f08c379a0000000000000000000000000000000000000000000000000000000008152600401610d2f90611c8c565b60405180910390fd5b610d418161102b565b50565b6001816000016000828254019250508190555050565b600081600001549050919050565b60007f000000000000000000000000000000000000000000000000000000000000000073ffffffffffffffffffffffffffffffffffffffff16634000aea07f000000000000000000000000000000000000000000000000000000000000000084866000604051602001610ddc929190611ba1565b6040516020818303038152906040526040518463ffffffff1660e01b8152600401610e0993929190611b2d565b602060405180830381600087803b158015610e2357600080fd5b505af1158015610e37573d6000803e3d6000fd5b505050506040513d601f19601f82011682018060405250810190610e5b9190611611565b506000610e7e84600030600160008981526020019081526020016000205461121e565b9050600180600086815260200190815260200160002054610e9f9190611eaa565b6001600086815260200190815260200160002081905550610ec0848261125a565b91505092915050565b600060095411610f0e576040517f08c379a0000000000000000000000000000000000000000000000000000000008152600401610f0590611cac565b60405180910390fd5b6000600c6000600954815260200190815260200160002060000160009054906101000a900473ffffffffffffffffffffffffffffffffffffffff1690506000610f556107c3565b90506001600860006101000a81548160ff02191690831515021790555060008273ffffffffffffffffffffffffffffffffffffffff1682604051610f9890611a9d565b60006040518083038185875af1925050503d8060008114610fd5576040519150601f19603f3d011682016040523d82523d6000602084013e610fda565b606091505b505090508061101e576040517f08c379a000000000000000000000000000000000000000000000000000000000815260040161101590611dcc565b60405180910390fd5b505050565b600033905090565b60008060009054906101000a900473ffffffffffffffffffffffffffffffffffffffff169050816000806101000a81548173ffffffffffffffffffffffffffffffffffffffff021916908373ffffffffffffffffffffffffffffffffffffffff1602179055508173ffffffffffffffffffffffffffffffffffffffff168173ffffffffffffffffffffffffffffffffffffffff167f8be0079c531659141344cd1fd0a4f28419497f9722a3daafe3b4186f6b6457e060405160405180910390a35050565b6111708363a9059cbb60e01b848460405160240161110e929190611acd565b604051602081830303815290604052907bffffffffffffffffffffffffffffffffffffffffffffffffffffffff19166020820180517bffffffffffffffffffffffffffffffffffffffffffffffffffffffff838183161783525050505061128d565b505050565b60035482146111b9576040517f08c379a00000000000000000000000000000000000000000000000000000000081526004016111b090611e2c565b60405180910390fd5b6001600754826111c99190611fd0565b6111d39190611eaa565b6009819055506009547fe2cb28c7d64ae4cb99d4b0c50a87bc277d6e4bef501e0db0fbe4640761bb79a360405160405180910390a26112126001611354565b61121a610ec9565b5050565b6000848484846040516020016112379493929190611bca565b6040516020818303038152906040528051906020012060001c9050949350505050565b6000828260405160200161126f929190611a5a565b60405160208183030381529060405280519060200120905092915050565b60006112ef826040518060400160405280602081526020017f5361666545524332303a206c6f772d6c6576656c2063616c6c206661696c65648152508573ffffffffffffffffffffffffffffffffffffffff166113c09092919063ffffffff16565b905060008151111561134f578080602001905181019061130f9190611611565b61134e576040517f08c379a000000000000000000000000000000000000000000000000000000000815260040161134590611e0c565b60405180910390fd5b5b505050565b80600560006101000a81548160ff021916908360018111156113795761137861205f565b5b02179055508060018111156113915761139061205f565b5b7f1e046fdd2110d82ed3fa7652b41ced17c49cbb9ee4536e65f51ad2a6ed5359a760405160405180910390a250565b60606113cf84846000856113d8565b90509392505050565b60608247101561141d576040517f08c379a000000000000000000000000000000000000000000000000000000000815260040161141490611ccc565b60405180910390fd5b611426856114ec565b611465576040517f08c379a000000000000000000000000000000000000000000000000000000000815260040161145c90611dec565b60405180910390fd5b6000808673ffffffffffffffffffffffffffffffffffffffff16858760405161148e9190611a86565b60006040518083038185875af1925050503d80600081146114cb576040519150601f19603f3d011682016040523d82523d6000602084013e6114d0565b606091505b50915091506114e08282866114ff565b92505050949350505050565b600080823b905060008111915050919050565b6060831561150f5782905061155f565b6000835111156115225782518084602001fd5b816040517f08c379a00000000000000000000000000000000000000000000000000000000081526004016115569190611c2a565b60405180910390fd5b9392505050565b600081359050611575816124ed565b92915050565b60008151905061158a81612504565b92915050565b60008135905061159f8161251b565b92915050565b6000813590506115b481612532565b92915050565b6000813590506115c981612549565b92915050565b6000815190506115de81612549565b92915050565b6000602082840312156115fa576115f961208e565b5b600061160884828501611566565b91505092915050565b6000602082840312156116275761162661208e565b5b60006116358482850161157b565b91505092915050565b600080604083850312156116555761165461208e565b5b600061166385828601611590565b9250506020611674858286016115ba565b9150509250929050565b600080604083850312156116955761169461208e565b5b60006116a3858286016115a5565b92505060206116b485828601611566565b9150509250929050565b6000602082840312156116d4576116d361208e565b5b60006116e2848285016115cf565b91505092915050565b6116f481611f00565b82525050565b61170381611f12565b82525050565b61171281611f1e565b82525050565b61172961172482611f1e565b611fbc565b82525050565b600061173a82611e67565b6117448185611e7d565b9350611754818560208601611f89565b61175d81612093565b840191505092915050565b600061177382611e67565b61177d8185611e8e565b935061178d818560208601611f89565b80840191505092915050565b6117a281611f77565b82525050565b60006117b382611e72565b6117bd8185611e99565b93506117cd818560208601611f89565b6117d681612093565b840191505092915050565b60006117ee602483611e99565b91506117f9826120a4565b604082019050919050565b6000611811602383611e99565b915061181c826120f3565b604082019050919050565b6000611834602683611e99565b915061183f82612142565b604082019050919050565b6000611857602983611e99565b915061186282612191565b604082019050919050565b600061187a602683611e99565b9150611885826121e0565b604082019050919050565b600061189d603983611e99565b91506118a88261222f565b604082019050919050565b60006118c0602083611e99565b91506118cb8261227e565b602082019050919050565b60006118e3602b83611e99565b91506118ee826122a7565b604082019050919050565b6000611906602d83611e99565b9150611911826122f6565b604082019050919050565b6000611929603583611e99565b915061193482612345565b604082019050919050565b600061194c601f83611e99565b915061195782612394565b602082019050919050565b600061196f602083611e99565b915061197a826123bd565b602082019050919050565b6000611992602083611e99565b915061199d826123e6565b602082019050919050565b60006119b5600083611e8e565b91506119c08261240f565b600082019050919050565b60006119d8601d83611e99565b91506119e382612412565b602082019050919050565b60006119fb602a83611e99565b9150611a068261243b565b604082019050919050565b6000611a1e602283611e99565b9150611a298261248a565b604082019050919050565b611a3d81611f6d565b82525050565b611a54611a4f82611f6d565b611fc6565b82525050565b6000611a668285611718565b602082019150611a768284611a43565b6020820191508190509392505050565b6000611a928284611768565b915081905092915050565b6000611aa8826119a8565b9150819050919050565b6000602082019050611ac760008301846116eb565b92915050565b6000604082019050611ae260008301856116eb565b611aef6020830184611a34565b9392505050565b6000606082019050611b0b60008301866116eb565b611b186020830185611a34565b611b2560408301846116fa565b949350505050565b6000606082019050611b4260008301866116eb565b611b4f6020830185611a34565b8181036040830152611b61818461172f565b9050949350505050565b6000602082019050611b8060008301846116fa565b92915050565b6000602082019050611b9b6000830184611709565b92915050565b6000604082019050611bb66000830185611709565b611bc36020830184611a34565b9392505050565b6000608082019050611bdf6000830187611709565b611bec6020830186611a34565b611bf960408301856116eb565b611c066060830184611a34565b95945050505050565b6000602082019050611c246000830184611799565b92915050565b60006020820190508181036000830152611c4481846117a8565b905092915050565b60006020820190508181036000830152611c65816117e1565b9050919050565b60006020820190508181036000830152611c8581611804565b9050919050565b60006020820190508181036000830152611ca581611827565b9050919050565b60006020820190508181036000830152611cc58161184a565b9050919050565b60006020820190508181036000830152611ce58161186d565b9050919050565b60006020820190508181036000830152611d0581611890565b9050919050565b60006020820190508181036000830152611d25816118b3565b9050919050565b60006020820190508181036000830152611d45816118d6565b9050919050565b60006020820190508181036000830152611d65816118f9565b9050919050565b60006020820190508181036000830152611d858161191c565b9050919050565b60006020820190508181036000830152611da58161193f565b9050919050565b60006020820190508181036000830152611dc581611962565b9050919050565b60006020820190508181036000830152611de581611985565b9050919050565b60006020820190508181036000830152611e05816119cb565b9050919050565b60006020820190508181036000830152611e25816119ee565b9050919050565b60006020820190508181036000830152611e4581611a11565b9050919050565b6000602082019050611e616000830184611a34565b92915050565b600081519050919050565b600081519050919050565b600082825260208201905092915050565b600081905092915050565b600082825260208201905092915050565b6000611eb582611f6d565b9150611ec083611f6d565b9250827fffffffffffffffffffffffffffffffffffffffffffffffffffffffffffffffff03821115611ef557611ef4612001565b5b828201905092915050565b6000611f0b82611f4d565b9050919050565b60008115159050919050565b6000819050919050565b6000611f3382611f00565b9050919050565b6000819050611f48826124d9565b919050565b600073ffffffffffffffffffffffffffffffffffffffff82169050919050565b6000819050919050565b6000611f8282611f3a565b9050919050565b60005b83811015611fa7578082015181840152602081019050611f8c565b83811115611fb6576000848401525b50505050565b6000819050919050565b6000819050919050565b6000611fdb82611f6d565b9150611fe683611f6d565b925082611ff657611ff5612030565b5b828206905092915050565b7f4e487b7100000000000000000000000000000000000000000000000000000000600052601160045260246000fd5b7f4e487b7100000000000000000000000000000000000000000000000000000000600052601260045260246000fd5b7f4e487b7100000000000000000000000000000000000000000000000000000000600052602160045260246000fd5b600080fd5b6000601f19601f8301169050919050565b7f5468657265206973206e6f207072697a6520706f6f6c20746f20626520636c6160008201527f696d656400000000000000000000000000000000000000000000000000000000602082015250565b7f4f6e6c79207468652077696e6e65722063616e20636c61696d2074686520707260008201527f697a650000000000000000000000000000000000000000000000000000000000602082015250565b7f4f776e61626c653a206e6577206f776e657220697320746865207a65726f206160008201527f6464726573730000000000000000000000000000000000000000000000000000602082015250565b7f5468652077696e6e696e67206e756d62657220686173206e6f74206265656e2060008201527f647261776e207965740000000000000000000000000000000000000000000000602082015250565b7f416464726573733a20696e73756666696369656e742062616c616e636520666f60008201527f722063616c6c0000000000000000000000000000000000000000000000000000602082015250565b7f5072697a652063616e20626520636c61696d6564206f6e6c792061667465722060008201527f746865206c6f74746572792068617320636f6e636c7564656400000000000000602082015250565b7f4f776e61626c653a2063616c6c6572206973206e6f7420746865206f776e6572600082015250565b7f546869732077616c6c65742068617320616c726561647920656e74657265642060008201527f746865206c6f7474657279000000000000000000000000000000000000000000602082015250565b7f506c65617365207061792074686520636f727265637420616d6f756e7420666f60008201527f7220746865206c6f747465727900000000000000000000000000000000000000602082015250565b7f5469636b6574732063616e206f6e6c792062652070757263686173656420647560008201527f72696e67207468652073616c657320706572696f640000000000000000000000602082015250565b7f4f6e6c7920565246436f6f7264696e61746f722063616e2066756c66696c6c00600082015250565b7f5072697a65206973206e6f7420726561647920746f20626520636c61696d6564600082015250565b7f4661696c656420746f2073656e642062616c616e636520746f2077696e6e6572600082015250565b50565b7f416464726573733a2063616c6c20746f206e6f6e2d636f6e7472616374000000600082015250565b7f5361666545524332303a204552433230206f7065726174696f6e20646964206e60008201527f6f74207375636365656400000000000000000000000000000000000000000000602082015250565b7f496e76616c6964207265717565737420666f72207468652072616e646f6d6e6560008201527f7373000000000000000000000000000000000000000000000000000000000000602082015250565b600281106124ea576124e961205f565b5b50565b6124f681611f00565b811461250157600080fd5b50565b61250d81611f12565b811461251857600080fd5b50565b61252481611f1e565b811461252f57600080fd5b50565b61253b81611f28565b811461254657600080fd5b50565b61255281611f6d565b811461255d57600080fd5b5056fea26469706673582212208b76a6f25712c43af9e7ce1ab153803c927290c12c4aa987557c44bc214bf45a64736f6c63430008070033",
  "linkReferences": {},
  "deployedLinkReferences": {}
}