{
  "_format": "hh-sol-artifact-1",
  "contractName": "Lottery",
  "sourceName": "contracts/Lottery.sol",
  "abi": [
    {
      "inputs": [
        {
          "internalType": "address",
          "name": "_linkToken",
          "type": "address"
        },
        {
          "internalType": "bytes32",
          "name": "_keyHash",
          "type": "bytes32"
        },
        {
          "internalType": "address",
          "name": "_vrfCoordinator",
          "type": "address"
        },
        {
          "internalType": "uint256",
          "name": "_chainlinkFee",
          "type": "uint256"
        },
        {
          "internalType": "uint256",
          "name": "_ticketPrice",
          "type": "uint256"
        },
        {
          "internalType": "uint256",
          "name": "_maxTicketCount",
          "type": "uint256"
        }
      ],
      "stateMutability": "nonpayable",
      "type": "constructor"
    },
    {
      "anonymous": false,
      "inputs": [
        {
          "indexed": true,
          "internalType": "address",
          "name": "ticketHolder",
          "type": "address"
        },
        {
          "indexed": false,
          "internalType": "uint256",
          "name": "prize",
          "type": "uint256"
        }
      ],
      "name": "LotteryPrizeClaimed",
      "type": "event"
    },
    {
      "anonymous": false,
      "inputs": [
        {
          "indexed": true,
          "internalType": "enum Lottery.LotteryState",
          "name": "state",
          "type": "uint8"
        }
      ],
      "name": "LotteryStateChanged",
      "type": "event"
    },
    {
      "anonymous": false,
      "inputs": [
        {
          "indexed": true,
          "internalType": "address",
          "name": "ticketHolder",
          "type": "address"
        },
        {
          "indexed": false,
          "internalType": "uint256",
          "name": "ticketNumber",
          "type": "uint256"
        }
      ],
      "name": "LotteryTicketPurchased",
      "type": "event"
    },
    {
      "anonymous": false,
      "inputs": [
        {
          "indexed": true,
          "internalType": "uint256",
          "name": "number",
          "type": "uint256"
        }
      ],
      "name": "LotteryWinningNumberDrawn",
      "type": "event"
    },
    {
      "anonymous": false,
      "inputs": [
        {
          "indexed": true,
          "internalType": "bytes32",
          "name": "requestId",
          "type": "bytes32"
        }
      ],
      "name": "LotteryWinningNumberRequested",
      "type": "event"
    },
    {
      "anonymous": false,
      "inputs": [
        {
          "indexed": true,
          "internalType": "address",
          "name": "previousOwner",
          "type": "address"
        },
        {
          "indexed": true,
          "internalType": "address",
          "name": "newOwner",
          "type": "address"
        }
      ],
      "name": "OwnershipTransferred",
      "type": "event"
    },
    {
      "inputs": [],
      "name": "chainlinkFee",
      "outputs": [
        {
          "internalType": "uint256",
          "name": "",
          "type": "uint256"
        }
      ],
      "stateMutability": "view",
      "type": "function"
    },
    {
      "inputs": [],
      "name": "claimPrize",
      "outputs": [],
      "stateMutability": "nonpayable",
      "type": "function"
    },
    {
      "inputs": [],
      "name": "getCurrentTicketNumber",
      "outputs": [
        {
          "internalType": "uint256",
          "name": "",
          "type": "uint256"
        }
      ],
      "stateMutability": "view",
      "type": "function"
    },
    {
      "inputs": [],
      "name": "getLotteryBalance",
      "outputs": [
        {
          "internalType": "uint256",
          "name": "",
          "type": "uint256"
        }
      ],
      "stateMutability": "view",
      "type": "function"
    },
    {
      "inputs": [],
      "name": "isPrizeClaimed",
      "outputs": [
        {
          "internalType": "bool",
          "name": "",
          "type": "bool"
        }
      ],
      "stateMutability": "view",
      "type": "function"
    },
    {
      "inputs": [],
      "name": "keyHash",
      "outputs": [
        {
          "internalType": "bytes32",
          "name": "",
          "type": "bytes32"
        }
      ],
      "stateMutability": "view",
      "type": "function"
    },
    {
      "inputs": [],
      "name": "lotteryState",
      "outputs": [
        {
          "internalType": "enum Lottery.LotteryState",
          "name": "",
          "type": "uint8"
        }
      ],
      "stateMutability": "view",
      "type": "function"
    },
    {
      "inputs": [],
      "name": "maxTicketCount",
      "outputs": [
        {
          "internalType": "uint256",
          "name": "",
          "type": "uint256"
        }
      ],
      "stateMutability": "view",
      "type": "function"
    },
    {
      "inputs": [],
      "name": "owner",
      "outputs": [
        {
          "internalType": "address",
          "name": "",
          "type": "address"
        }
      ],
      "stateMutability": "view",
      "type": "function"
    },
    {
      "inputs": [],
      "name": "purchaseTicket",
      "outputs": [],
      "stateMutability": "payable",
      "type": "function"
    },
    {
      "inputs": [
        {
          "internalType": "bytes32",
          "name": "requestId",
          "type": "bytes32"
        },
        {
          "internalType": "uint256",
          "name": "randomness",
          "type": "uint256"
        }
      ],
      "name": "rawFulfillRandomness",
      "outputs": [],
      "stateMutability": "nonpayable",
      "type": "function"
    },
    {
      "inputs": [],
      "name": "renounceOwnership",
      "outputs": [],
      "stateMutability": "nonpayable",
      "type": "function"
    },
    {
      "inputs": [],
      "name": "requestId",
      "outputs": [
        {
          "internalType": "bytes32",
          "name": "",
          "type": "bytes32"
        }
      ],
      "stateMutability": "view",
      "type": "function"
    },
    {
      "inputs": [
        {
          "internalType": "address",
          "name": "",
          "type": "address"
        }
      ],
      "name": "ticketHoldersToTicket",
      "outputs": [
        {
          "internalType": "address",
          "name": "owner",
          "type": "address"
        },
        {
          "internalType": "uint256",
          "name": "number",
          "type": "uint256"
        },
        {
          "internalType": "bool",
          "name": "isPaid",
          "type": "bool"
        }
      ],
      "stateMutability": "view",
      "type": "function"
    },
    {
      "inputs": [],
      "name": "ticketPrice",
      "outputs": [
        {
          "internalType": "uint256",
          "name": "",
          "type": "uint256"
        }
      ],
      "stateMutability": "view",
      "type": "function"
    },
    {
      "inputs": [
        {
          "internalType": "address",
          "name": "newOwner",
          "type": "address"
        }
      ],
      "name": "transferOwnership",
      "outputs": [],
      "stateMutability": "nonpayable",
      "type": "function"
    },
    {
      "inputs": [],
      "name": "winningNumber",
      "outputs": [
        {
          "internalType": "uint256",
          "name": "",
          "type": "uint256"
        }
      ],
      "stateMutability": "view",
      "type": "function"
    }
  ],
  "bytecode": "0x60c06040526000600560006101000a81548160ff021916908360018111156200002d576200002c62000314565b5b02179055503480156200003f57600080fd5b506040516200206538038062002065833981810160405281019062000065919062000230565b8386620000876200007b6200011f60201b60201c565b6200012760201b60201c565b8173ffffffffffffffffffffffffffffffffffffffff1660a08173ffffffffffffffffffffffffffffffffffffffff1660601b815250508073ffffffffffffffffffffffffffffffffffffffff1660808173ffffffffffffffffffffffffffffffffffffffff1660601b8152505050508460028190555082600481905550816006819055508060078190555050505050505062000396565b600033905090565b60008060009054906101000a900473ffffffffffffffffffffffffffffffffffffffff169050816000806101000a81548173ffffffffffffffffffffffffffffffffffffffff021916908373ffffffffffffffffffffffffffffffffffffffff1602179055508173ffffffffffffffffffffffffffffffffffffffff168173ffffffffffffffffffffffffffffffffffffffff167f8be0079c531659141344cd1fd0a4f28419497f9722a3daafe3b4186f6b6457e060405160405180910390a35050565b600081519050620001fc8162000348565b92915050565b600081519050620002138162000362565b92915050565b6000815190506200022a816200037c565b92915050565b60008060008060008060c0878903121562000250576200024f62000343565b5b60006200026089828a01620001eb565b96505060206200027389828a0162000202565b95505060406200028689828a01620001eb565b94505060606200029989828a0162000219565b9350506080620002ac89828a0162000219565b92505060a0620002bf89828a0162000219565b9150509295509295509295565b6000620002d982620002ea565b9050919050565b6000819050919050565b600073ffffffffffffffffffffffffffffffffffffffff82169050919050565b6000819050919050565b7f4e487b7100000000000000000000000000000000000000000000000000000000600052602160045260246000fd5b600080fd5b6200035381620002cc565b81146200035f57600080fd5b50565b6200036d81620002e0565b81146200037957600080fd5b50565b62000387816200030a565b81146200039357600080fd5b50565b60805160601c60a05160601c611c9c620003c960003960008181610a020152610c0b01526000610bcf0152611c9c6000f3fe6080604052600436106100fd5760003560e01c80636939864b116100955780637ac98be1116100645780637ac98be1146102d15780638da5cb5b146102fc57806394985ddd14610327578063c4d6b7cc14610350578063f2fde38b1461037b576100fd565b80636939864b1461024d57806370740ac9146102785780637104539a1461028f578063715018a6146102ba576100fd565b80634664611e116100d15780634664611e1461018d57806359c49cb9146101b857806360654e47146101f757806361728f3914610222576100fd565b80626d6cae14610102578063090aa2751461012d5780631209b1f61461015857806321846c7614610183575b600080fd5b34801561010e57600080fd5b506101176103a4565b60405161012491906114c1565b60405180910390f35b34801561013957600080fd5b506101426103aa565b60405161014f91906116c5565b60405180910390f35b34801561016457600080fd5b5061016d6103b0565b60405161017a91906116c5565b60405180910390f35b61018b6103b6565b005b34801561019957600080fd5b506101a2610732565b6040516101af91906116c5565b60405180910390f35b3480156101c457600080fd5b506101df60048036038101906101da91906110e5565b610738565b6040516101ee93929190611431565b60405180910390f35b34801561020357600080fd5b5061020c61078f565b60405161021991906116c5565b60405180910390f35b34801561022e57600080fd5b50610237610797565b60405161024491906114c1565b60405180910390f35b34801561025957600080fd5b5061026261079d565b60405161026f919061154a565b60405180910390f35b34801561028457600080fd5b5061028d6107b0565b005b34801561029b57600080fd5b506102a4610938565b6040516102b191906116c5565b60405180910390f35b3480156102c657600080fd5b506102cf610949565b005b3480156102dd57600080fd5b506102e66109d1565b6040516102f391906116c5565b60405180910390f35b34801561030857600080fd5b506103116109d7565b60405161031e9190611416565b60405180910390f35b34801561033357600080fd5b5061034e6004803603810190610349919061113f565b610a00565b005b34801561035c57600080fd5b50610365610a9c565b60405161037291906114a6565b60405180910390f35b34801561038757600080fd5b506103a2600480360381019061039d91906110e5565b610aaf565b005b60035481565b60075481565b60065481565b600060018111156103ca576103c96118bb565b5b600560009054906101000a900460ff1660018111156103ec576103eb6118bb565b5b1461042c576040517f08c379a000000000000000000000000000000000000000000000000000000000815260040161042390611645565b60405180910390fd5b6006543414610470576040517f08c379a000000000000000000000000000000000000000000000000000000000815260040161046790611625565b60405180910390fd5b60001515600b60003373ffffffffffffffffffffffffffffffffffffffff1673ffffffffffffffffffffffffffffffffffffffff16815260200190815260200160002060020160009054906101000a900460ff16151514610506576040517f08c379a00000000000000000000000000000000000000000000000000000000081526004016104fd90611605565b60405180910390fd5b610510600a610ba7565b600061051c600a610bbd565b9050600060405180606001604052803373ffffffffffffffffffffffffffffffffffffffff16815260200183815260200160011515815250905080600b60003373ffffffffffffffffffffffffffffffffffffffff1673ffffffffffffffffffffffffffffffffffffffff16815260200190815260200160002060008201518160000160006101000a81548173ffffffffffffffffffffffffffffffffffffffff021916908373ffffffffffffffffffffffffffffffffffffffff1602179055506020820151816001015560408201518160020160006101000a81548160ff02191690831515021790555090505080600c600084815260200190815260200160002060008201518160000160006101000a81548173ffffffffffffffffffffffffffffffffffffffff021916908373ffffffffffffffffffffffffffffffffffffffff1602179055506020820151816001015560408201518160020160006101000a81548160ff0219169083151502179055509050503373ffffffffffffffffffffffffffffffffffffffff167f5436f9c7563d4b5be022d399b41f15519419cafca0f81c49d0cfbe78b925cbff836040516106d891906116c5565b60405180910390a260075482141561072e576106f8600254600454610bcb565b6003819055506003547fc72c35213609b187a3132b5375b1bf53ad1e8258d356b4ac4b19e9ca767f6f4560405160405180910390a25b5050565b60095481565b600b6020528060005260406000206000915090508060000160009054906101000a900473ffffffffffffffffffffffffffffffffffffffff16908060010154908060020160009054906101000a900460ff16905083565b600047905090565b60025481565b600560009054906101000a900460ff1681565b3373ffffffffffffffffffffffffffffffffffffffff16600c6000600954815260200190815260200160002060000160009054906101000a900473ffffffffffffffffffffffffffffffffffffffff1673ffffffffffffffffffffffffffffffffffffffff1614610856576040517f08c379a000000000000000000000000000000000000000000000000000000000815260040161084d90611585565b60405180910390fd5b600180811115610869576108686118bb565b5b600560009054906101000a900460ff16600181111561088b5761088a6118bb565b5b1480156108a55750600860009054906101000a900460ff16155b6108e4576040517f08c379a00000000000000000000000000000000000000000000000000000000081526004016108db906115c5565b60405180910390fd5b60006108ee61078f565b1161092e576040517f08c379a000000000000000000000000000000000000000000000000000000000815260040161092590611565565b60405180910390fd5b610936610d2c565b565b6000610944600a610bbd565b905090565b610951610e41565b73ffffffffffffffffffffffffffffffffffffffff1661096f6109d7565b73ffffffffffffffffffffffffffffffffffffffff16146109c5576040517f08c379a00000000000000000000000000000000000000000000000000000000081526004016109bc906115e5565b60405180910390fd5b6109cf6000610e49565b565b60045481565b60008060009054906101000a900473ffffffffffffffffffffffffffffffffffffffff16905090565b7f000000000000000000000000000000000000000000000000000000000000000073ffffffffffffffffffffffffffffffffffffffff163373ffffffffffffffffffffffffffffffffffffffff1614610a8e576040517f08c379a0000000000000000000000000000000000000000000000000000000008152600401610a8590611665565b60405180910390fd5b610a988282610f0d565b5050565b600860009054906101000a900460ff1681565b610ab7610e41565b73ffffffffffffffffffffffffffffffffffffffff16610ad56109d7565b73ffffffffffffffffffffffffffffffffffffffff1614610b2b576040517f08c379a0000000000000000000000000000000000000000000000000000000008152600401610b22906115e5565b60405180910390fd5b600073ffffffffffffffffffffffffffffffffffffffff168173ffffffffffffffffffffffffffffffffffffffff161415610b9b576040517f08c379a0000000000000000000000000000000000000000000000000000000008152600401610b92906115a5565b60405180910390fd5b610ba481610e49565b50565b6001816000016000828254019250508190555050565b600081600001549050919050565b60007f000000000000000000000000000000000000000000000000000000000000000073ffffffffffffffffffffffffffffffffffffffff16634000aea07f000000000000000000000000000000000000000000000000000000000000000084866000604051602001610c3f9291906114dc565b6040516020818303038152906040526040518463ffffffff1660e01b8152600401610c6c93929190611468565b602060405180830381600087803b158015610c8657600080fd5b505af1158015610c9a573d6000803e3d6000fd5b505050506040513d601f19601f82011682018060405250810190610cbe9190611112565b506000610ce1846000306001600089815260200190815260200160002054610fb6565b9050600180600086815260200190815260200160002054610d029190611718565b6001600086815260200190815260200160002081905550610d238482610ff2565b91505092915050565b6000600c6000600954815260200190815260200160002060000160009054906101000a900473ffffffffffffffffffffffffffffffffffffffff1690506000610d7361078f565b905060008273ffffffffffffffffffffffffffffffffffffffff1682604051610d9b90611401565b60006040518083038185875af1925050503d8060008114610dd8576040519150601f19603f3d011682016040523d82523d6000602084013e610ddd565b606091505b5050905080610e21576040517f08c379a0000000000000000000000000000000000000000000000000000000008152600401610e1890611685565b60405180910390fd5b6001600860006101000a81548160ff021916908315150217905550505050565b600033905090565b60008060009054906101000a900473ffffffffffffffffffffffffffffffffffffffff169050816000806101000a81548173ffffffffffffffffffffffffffffffffffffffff021916908373ffffffffffffffffffffffffffffffffffffffff1602179055508173ffffffffffffffffffffffffffffffffffffffff168173ffffffffffffffffffffffffffffffffffffffff167f8be0079c531659141344cd1fd0a4f28419497f9722a3daafe3b4186f6b6457e060405160405180910390a35050565b6003548214610f51576040517f08c379a0000000000000000000000000000000000000000000000000000000008152600401610f48906116a5565b60405180910390fd5b600160075482610f61919061182c565b610f6b9190611718565b6009819055506009547fe2cb28c7d64ae4cb99d4b0c50a87bc277d6e4bef501e0db0fbe4640761bb79a360405160405180910390a2610fa8610d2c565b610fb26001611025565b5050565b600084848484604051602001610fcf9493929190611505565b6040516020818303038152906040528051906020012060001c9050949350505050565b600082826040516020016110079291906113d5565b60405160208183030381529060405280519060200120905092915050565b80600560006101000a81548160ff0219169083600181111561104a576110496118bb565b5b0217905550806001811115611062576110616118bb565b5b7f1e046fdd2110d82ed3fa7652b41ced17c49cbb9ee4536e65f51ad2a6ed5359a760405160405180910390a250565b6000813590506110a081611c0a565b92915050565b6000815190506110b581611c21565b92915050565b6000813590506110ca81611c38565b92915050565b6000813590506110df81611c4f565b92915050565b6000602082840312156110fb576110fa6118ea565b5b600061110984828501611091565b91505092915050565b600060208284031215611128576111276118ea565b5b6000611136848285016110a6565b91505092915050565b60008060408385031215611156576111556118ea565b5b6000611164858286016110bb565b9250506020611175858286016110d0565b9150509250929050565b6111888161176e565b82525050565b61119781611780565b82525050565b6111a68161178c565b82525050565b6111bd6111b88261178c565b611818565b82525050565b60006111ce826116e0565b6111d881856116eb565b93506111e88185602086016117e5565b6111f1816118ef565b840191505092915050565b611205816117d3565b82525050565b6000611218602483611707565b915061122382611900565b604082019050919050565b600061123b602383611707565b91506112468261194f565b604082019050919050565b600061125e602683611707565b91506112698261199e565b604082019050919050565b6000611281603983611707565b915061128c826119ed565b604082019050919050565b60006112a4602083611707565b91506112af82611a3c565b602082019050919050565b60006112c7602b83611707565b91506112d282611a65565b604082019050919050565b60006112ea602d83611707565b91506112f582611ab4565b604082019050919050565b600061130d603583611707565b915061131882611b03565b604082019050919050565b6000611330601f83611707565b915061133b82611b52565b602082019050919050565b6000611353602083611707565b915061135e82611b7b565b602082019050919050565b60006113766000836116fc565b915061138182611ba4565b600082019050919050565b6000611399602283611707565b91506113a482611ba7565b604082019050919050565b6113b8816117c9565b82525050565b6113cf6113ca826117c9565b611822565b82525050565b60006113e182856111ac565b6020820191506113f182846113be565b6020820191508190509392505050565b600061140c82611369565b9150819050919050565b600060208201905061142b600083018461117f565b92915050565b6000606082019050611446600083018661117f565b61145360208301856113af565b611460604083018461118e565b949350505050565b600060608201905061147d600083018661117f565b61148a60208301856113af565b818103604083015261149c81846111c3565b9050949350505050565b60006020820190506114bb600083018461118e565b92915050565b60006020820190506114d6600083018461119d565b92915050565b60006040820190506114f1600083018561119d565b6114fe60208301846113af565b9392505050565b600060808201905061151a600083018761119d565b61152760208301866113af565b611534604083018561117f565b61154160608301846113af565b95945050505050565b600060208201905061155f60008301846111fc565b92915050565b6000602082019050818103600083015261157e8161120b565b9050919050565b6000602082019050818103600083015261159e8161122e565b9050919050565b600060208201905081810360008301526115be81611251565b9050919050565b600060208201905081810360008301526115de81611274565b9050919050565b600060208201905081810360008301526115fe81611297565b9050919050565b6000602082019050818103600083015261161e816112ba565b9050919050565b6000602082019050818103600083015261163e816112dd565b9050919050565b6000602082019050818103600083015261165e81611300565b9050919050565b6000602082019050818103600083015261167e81611323565b9050919050565b6000602082019050818103600083015261169e81611346565b9050919050565b600060208201905081810360008301526116be8161138c565b9050919050565b60006020820190506116da60008301846113af565b92915050565b600081519050919050565b600082825260208201905092915050565b600081905092915050565b600082825260208201905092915050565b6000611723826117c9565b915061172e836117c9565b9250827fffffffffffffffffffffffffffffffffffffffffffffffffffffffffffffffff038211156117635761176261185d565b5b828201905092915050565b6000611779826117a9565b9050919050565b60008115159050919050565b6000819050919050565b60008190506117a482611bf6565b919050565b600073ffffffffffffffffffffffffffffffffffffffff82169050919050565b6000819050919050565b60006117de82611796565b9050919050565b60005b838110156118035780820151818401526020810190506117e8565b83811115611812576000848401525b50505050565b6000819050919050565b6000819050919050565b6000611837826117c9565b9150611842836117c9565b9250826118525761185161188c565b5b828206905092915050565b7f4e487b7100000000000000000000000000000000000000000000000000000000600052601160045260246000fd5b7f4e487b7100000000000000000000000000000000000000000000000000000000600052601260045260246000fd5b7f4e487b7100000000000000000000000000000000000000000000000000000000600052602160045260246000fd5b600080fd5b6000601f19601f8301169050919050565b7f5468657265206973206e6f207072697a6520706f6f6c20746f20626520636c6160008201527f696d656400000000000000000000000000000000000000000000000000000000602082015250565b7f4f6e6c79207468652077696e6e65722063616e20636c61696d2074686520707260008201527f697a650000000000000000000000000000000000000000000000000000000000602082015250565b7f4f776e61626c653a206e6577206f776e657220697320746865207a65726f206160008201527f6464726573730000000000000000000000000000000000000000000000000000602082015250565b7f5072697a652063616e20626520636c61696d6564206f6e6c792061667465722060008201527f746865206c6f74746572792068617320636f6e636c7564656400000000000000602082015250565b7f4f776e61626c653a2063616c6c6572206973206e6f7420746865206f776e6572600082015250565b7f546869732077616c6c65742068617320616c726561647920656e74657265642060008201527f746865206c6f7474657279000000000000000000000000000000000000000000602082015250565b7f506c65617365207061792074686520636f727265637420616d6f756e7420666f60008201527f7220746865206c6f747465727900000000000000000000000000000000000000602082015250565b7f5469636b6574732063616e206f6e6c792062652070757263686173656420647560008201527f72696e67207468652073616c657320706572696f640000000000000000000000602082015250565b7f4f6e6c7920565246436f6f7264696e61746f722063616e2066756c66696c6c00600082015250565b7f4661696c656420746f2073656e642062616c616e636520746f2077696e6e6572600082015250565b50565b7f496e76616c6964207265717565737420666f72207468652072616e646f6d6e6560008201527f7373000000000000000000000000000000000000000000000000000000000000602082015250565b60028110611c0757611c066118bb565b5b50565b611c138161176e565b8114611c1e57600080fd5b50565b611c2a81611780565b8114611c3557600080fd5b50565b611c418161178c565b8114611c4c57600080fd5b50565b611c58816117c9565b8114611c6357600080fd5b5056fea2646970667358221220d5a38b675226778ef1cf1c30657174b70b9eac6daa33f3ea7927263b7ce8027464736f6c63430008070033",
  "linkReferences": {},
  "deployedLinkReferences": {}
}